:020000020000FC
:040000000C946601F5
:04000C000C942F0120
:040014000C94FB004D
:04002C000C94C1006F
:100050000C94C000F8940F9300E00093C1000F913E
:1000600078940895F8940F9308E40093C1000F91D9
:1000700078940895F8940F930CE0009381000F9109
:10008000789408950895F8940F9300E00093850004
:10009000009384000F9178940895F8940F9300E0F2
:1000A000009381000F9178940895F8940F9305B10F
:1000B000026005B90F9178940895F8940F9305B1F3
:1000C0000D7F05B90F9178940895F8940F9305B1B9
:1000D000006205B90F9178940895F8940F9305B1D3
:1000E0000F7D05B90F9178940895F8946F935F93FD
:1000F0004F9360E05AEF40E0415050406040E0F7DD
:100100004F915F916F9178940895F8946F936BB1CC
:10011000103041F0113049F0123059F0133069F0CD
:100120000C94A100637F0C94A100677F64600C9421
:10013000A1006B7F68600C94A100646068600C94FF
:10014000A1006BB96F9178940895F8940E945D00B6
:100150000E9442004E7F0E9465000E943A007894FF
:1001600008959093C600F89441600E945D000E943B
:100170006D000E944D000E94420030E07894089586
:100180001895F8943F5F41FD0C94C8000C94E8006A
:10019000333079F54D7F152F0E944D000E944200AB
:1001A00030E0123021F0113039F0103051F092E38C
:1001B0009093C6000C94F90091E39093C6000C94C0
:1001C000F90090E39093C6000C94F9000C94F900A8
:1001D00040FD0C94F900353021F03A3031F00C94A8
:1001E000F9000E9455000C94F9000E94B1000C9493
:1001F000F900789418950F9309B1F8940E9475004E
:100200000E94750004FD0C94100105FD0C9416016C
:1002100006FD0C941C0107FD0C9422010C942C018A
:1002200095E49093C60024600C942C0197E490937D
:10023000C60022600C942C0198E49093C6002160C3
:100240000C942C0191E49093C60041FD0C942C0178
:100250000E94A5000C942C0178940F9118950F938F
:1002600003B1F8940E9475000E94750000FD0C9483
:10027000560102FD0C94440103FD0C944A0104FD57
:100280000C9450010C94630192E49093C600206496
:100290000C94630193E49093C60020620C94630174
:1002A00094E49093C60020610C94630196E49093CB
:1002B000C60041FD0C94630140FD0C9463010E9453
:1002C000B1000C94630178940F911895F89400E0B4
:1002D0000093C50007E60093C40006E00093C20047
:1002E0000E94320004EF0093890004E2009388002A
:1002F00000E00093800000916F00026000936F00A7
:1003000002E204B90CE00AB905E0009368000FEFBF
:1003100000936B0000EF00936D000FEF0DBF08E03E
:100320000EBF20E041E000E000930B0000930500C9
:1003300060E080E090E030E070E00E94B1000E9458
:100340004D000E94420010E050E078940E94750039
:100350000E94850041FD0C94A801123041F011303B
:1003600011F1103011F00C9418020C94F70124FDD7
:100370000C94CB0120FD0C94CB0125FD0C94D001F5
:1003800021FD0C94D00126FD0C94D00122FD0C948B
:10039000D0010C9418020E94A5002E7E0C94180225
:1003A00051E00C94180221FD0C94E70120FD0C94FF
:1003B000EC0124FD0C94EC0125FD0C94EF0126FDCD
:1003C0000C94F40122FD0C94F4010C9418020E9488
:1003D000A5002D7F0C94180252E00C9418020E9484
:1003E000A5002F7D0C94180250E00C94180222FDF9
:1003F0000C940B0220FD0C94100224FD0C941002AE
:1004000021FD0C94100225FD0C94100226FD0C9485
:1004100013020C9418020E94A5002B7F0C94180262
:1004200051E00C9418020E94A5002F7B0C94180236
:1004300040FF0C94A801511739F042600E943A0025
:0C0440000C94A8010C94A8010C94A801D5
:00000001FF
