:020000020000FC
:040000000C942F012C
:04000C000C940C0143
:040014000C94E9005F
:04002C000C94C00070
:100050000C94BB00F8940F9300E00093C1000F9143
:1000600078940895F8940F9308E40093C1000F91D9
:1000700078940895F8940F930CE0009381000F9109
:1000800078940895F8940F9300E00093850000930E
:10009000840030E00F9178940895F8940F9300E075
:1000A000009381000F9178940895F8940F9305B10F
:1000B000026005B90F9178940895F8940F9305B1F3
:1000C0000D7F05B90F9178940895F8940F9305B1B9
:1000D000006205B90F9178940895F8940F9305B1D3
:1000E0000F7D05B90F9178940895F8946F935F93FD
:1000F0004F9360E05AEF40E0415050406040E0F7DD
:100100004F915F916F9178940895F8946F936BB1CC
:10011000103041F0113049F0123059F0133069F0CD
:100120000C94A100637F0C94A1006B7F68600C9419
:10013000A100677F64600C94A100686064600C9407
:10014000A1006BB96F9178940895F8940E944200D1
:100150004E7F0E9465000E943A0078940895F894BA
:1001600041600E945D000E946D000E944D000E944F
:10017000420078940895189591E49093C6001895DC
:10018000F8943F5F41FD0C94D60040FD0C94E400D0
:10019000353021F03A3031F00C94E4000E945500E3
:1001A0000C94E4000E94AF000C94E400333011F092
:1001B0000C94E400152F4D7F0E9485000E944D0095
:1001C0000E9442000C94E40078941F901F900C94BD
:1001D0006A01F89409B10E94750004FD0C94FB00BB
:1001E00005FD0C94FE0006FD0C94010107FD0C9426
:1001F00004010C940A0124600C940A0122600C94FE
:100200000A0121600C940A010E9465000E94A50069
:100210000C940A0178941895F89403B10E94750023
:1002200000FD0C94270102FD0C941E0103FD0C94AB
:10023000210104FD0C9424010C942D0120640C94E4
:100240002D0120620C942D0120610C942D010E943F
:100250005D000E946D000C942D0178941895F8941F
:1002600000E00093C50007E60093C40006E0009399
:10027000C2000AE70093890002E10093880000E0D1
:100280000093800000916F00026000936F0002E213
:1002900004B90CE00AB905E0009368000FEF009381
:1002A0006B0000EF00936D000FEF0DBF08E00EBF75
:1002B00020E00E944D000E94420010E050E041E02A
:1002C0000E94AF0000E000930B00009305007894BB
:1002D0000E94750041FD08C040FF07C0511729F07A
:1002E0004260C8DE02C0F6CFF5CF103029F01130E1
:1002F000B1F0123051F1EECF22FD0BC026FD09C046
:1003000020FD0BC024FD09C021FD07C025FD05C04F
:10031000E1CF0E94A5002B7BDDCF51E0DBCF21FD9B
:100320000BC025FD09C020FD0CC024FD0AC022FD24
:100330000AC026FD08C0CECF0E94A50082E22D7D16
:10034000C9CF52E0C7CF50E0C5CF20FD0BC024FD80
:1003500009C021FD0BC025FD09C022FD07C026FDF7
:1003600005C0B8CF0E94A5002E7EB4CF51E0B2CF19
:00000001FF
