:020000020000FC
:040000000C946801F3
:04000C000C9431011E
:040014000C94FD004B
:04002C000C94C3006D
:100050000C94C200F8940F9300E00093C1000F913C
:1000600078940895F8940F9308E40093C1000F91D9
:1000700078940895F8940F930CE0009381000F9109
:10008000789408950895F8940F9300E00093850004
:10009000009384000F9178940895F8940F9300E0F2
:1000A000009381000F9178940895F8940F9305B10F
:1000B000026005B90F9178940895F8940F9305B1F3
:1000C0000D7F05B90F9178940895F8940F9305B1B9
:1000D000006205B90F9178940895F8940F9305B1D3
:1000E0000F7D05B90F9178940895F8946F935F93FD
:1000F0004F9360E05AEF40E0415050406040E0F7DD
:100100004F915F916F9178940895F8946F936BB1CC
:10011000103041F0113049F0123059F0133069F0CD
:100120000C94A100637F0C94A1006B7F68600C9419
:10013000A100677F64600C94A100686064600C9407
:10014000A1006BB96F9178940895F8940E945D00B6
:100150000E944D000E9442004E7F0E9465000E9456
:100160003A00789408959093C600F89441600E94F4
:100170005D000E946D000E944D000E94420030E030
:10018000789408951895F8943F5F41FD0C94CA0047
:100190000C94EA00333079F54D7F152F0E944D0005
:1001A0000E94420030E0123021F0113039F010305E
:1001B00051F092E39093C6000C94FB0091E390936E
:1001C000C6000C94FB0090E39093C6000C94FB00D7
:1001D0000C94FB0040FD0C94FB00353021F03A30CC
:1001E00031F00C94FB000E9455000C94FB000E941F
:1001F000B3000C94FB00789418950F9309B1F89410
:100200000E9475000E94750004FD0C94120105FD0A
:100210000C94180106FD0C941E0107FD0C9424019A
:100220000C942E0195E49093C60024600C942E014A
:1002300097E49093C60022600C942E0198E490936A
:10024000C60021600C942E0191E49093C60041FDFC
:100250000C942E010E94A5000C942E0178940F910D
:1002600018950F9303B1F8940E9475000E947500D1
:1002700000FD0C94580102FD0C94460103FD0C9402
:100280004C0104FD0C9452010C94650192E490938E
:10029000C60020640C94650193E49093C60020622C
:1002A0000C94650194E49093C60020610C94650160
:1002B00096E49093C60041FD0C94650140FD0C94BA
:1002C00065010E94B3000C94650178940F91189514
:1002D000F89400E00093C50007E60093C40006E030
:1002E0000093C2000E94320004EF0093890004E2F0
:1002F0000093880000E00093800000916F0002608E
:1003000000936F0002E204B90CE00AB905E0009323
:1003100068000FEF00936B0000EF00936D000FEF8C
:100320000DBF08E00EBF20E041E000E000930B00AD
:100330000093050060E080E090E030E070E00E9413
:10034000B3000E944D000E94420010E050E07894FB
:100350000E9475000E94850041FD0C94AA01123094
:1003600041F0113021F1103011F00C941C020C946A
:10037000FB0124FD0C94CD0120FD0C94CD0125FD45
:100380000C94D40121FD0C94D40126FD0C94D401CD
:1003900022FD0C94D4010C941C020E94A5002E7E18
:1003A0000E94A5000C941C0251E00C941C0221FD3B
:1003B0000C94EB0120FD0C94F00124FD0C94F00151
:1003C00025FD0C94F30126FD0C94F80122FD0C94FC
:1003D000F8010C941C020E94A5002D7F0C941C02B5
:1003E00052E00C941C020E94A5002F7D0C941C026C
:1003F00050E00C941C0222FD0C940F0220FD0C9482
:10040000140224FD0C94140221FD0C94140225FD09
:100410000C94140226FD0C9417020C941C020E94EA
:10042000A5002B7F0C941C0251E00C941C020E942E
:10043000A5002F7B0C941C0240FF0C94AA015117BD
:1004400039F042600E943A000C94AA010C94AA016F
:040450000C94AA015D
:00000001FF
