:020000020000FC
:040000000C94F70065
:04000C000C94CD0083
:040014000C94A000A8
:10002C000C9475000CE000938100089500E000939F
:10003C0085000093840030E0089500E00093810077
:10004C0008950F9305B1026005B90F91089505B19C
:10005C000D7F05B9089505B1006205B9089505B184
:10006C000F7D05B908956F935F934F9360E05AEF3E
:10007C0040E0415050406040E0F74F915F916F91EC
:10008C0008950BB1103041F0113049F0123059F095
:10009C00133069F00C946100037F0C9461000B7FAA
:1000AC0008600C946100077F04600C946100086088
:1000BC0004600C9461000BB908950E941C004E7FE3
:1000CC000E9431000E941800089541600E942D008A
:1000DC000E9435000E9423000E941C000895F89491
:1000EC003F5F41FD0C94920040FD0C949E00353016
:1000FC0021F03A3031F00C949E000E9427000C94B1
:10010C009E000E942D000E94350041600E94230039
:10011C000E941C000C949E00333011F00C949E0035
:10012C00152F4D7F0E9423000E941C000C949E00F2
:10013C0078941895F8940E94390009B104FD0C9438
:10014C00B20005FD0C94B80006FD0C94BE0007FD32
:10015C000C94C4000C94CB0010E00E944700246067
:10016C000C94CB0011E00E94470022600C94CB0051
:10017C0012E00E94470021600C94CB0041FF0E94CA
:10018C0031000E9463000C94CB0078941895F8947D
:10019C0003B10E94390000FD0C94F10002FD0C9497
:1001AC00DF0003FD0C94E50004FD0C94EB000C94B3
:1001BC00F50010E00E94470020640C94F50011E05B
:1001CC000E94470020620C94F50012E00E94470048
:1001DC0020610C94F5000E9435000C94F500789485
:1001EC001895F8940AE70093890002E100938800BF
:1001FC0000E00093800000916F00026000936F009C
:10020C0002E204B90CE00AB905E0009368000FEFB4
:10021C0000936B0000EF00936D0078940FEF0DBF0F
:10022C0008E00EBF0E9423000E941C0010E041E079
:06023C000E946B00FFCFE1
:00000001FF
