:020000020000FC
:040000000C944B0110
:04000C000C9420012F
:040014000C94F80050
:04002C000C94D3005D
:100050000C94BC00F8940F9300E00093C1000F9142
:1000600078940895F8940F9308E40093C1000F91D9
:1000700078940895F8940F930CE0009381000F9109
:10008000789408950895F8940F9300E00093850004
:10009000009384000F9178940895F8940F9300E0F2
:1000A000009381000F9178940895F8940F9305B10F
:1000B000026005B90F9178940895F8940F9305B1F3
:1000C0000D7F05B90F9178940895F8940F9305B1B9
:1000D000006205B90F9178940895F8940F9305B1D3
:1000E0000F7D05B90F9178940895F8946F935F93FD
:1000F0004F9360E05AEF40E0415050406040E0F7DD
:100100004F915F916F9178940895F8946F936BB1CC
:10011000103041F0113049F0123059F0133069F0CD
:100120000C94A100637F0C94A100677F64600C9421
:10013000A1006B7F68600C94A100646068600C94FF
:10014000A1006BB96F9178940895F8940E944200D1
:100150004E7F0E9465000E943A0078940895F894BA
:1001600041600E945D000E946D000E944D000E944F
:10017000420030E078940895123029F0113041F0B7
:10018000103059F0189592E39093C6000C94D20069
:1001900091E39093C6000C94D20090E39093C60034
:1001A0000C94D2001895F8943F5F41FD0C94DA004E
:1001B0000C94E5003330D1F44D7F152F0E944D0093
:1001C0000E94420030E00C94F60040FD0C94F600D2
:1001D000353021F03A3031F00C94F6000E94550091
:1001E0000C94F6000E94AF000C94F60078941895D9
:1001F0000F9309B1F8940E9475000E94750004FDE8
:100200000C940D0105FD0C94100106FD0C941301D6
:1002100007FD0C9416010C941D0124600C941D0123
:1002200022600C941D0121600C941D0141FD0C9471
:100230001D010E94A5000C941D0178940F91189542
:100240000F9303B1F8940E9475000E94750000FDA1
:100250000C943E0102FD0C94350103FD0C94380111
:1002600004FD0C943B010C94480120640C9448015B
:1002700020620C94480120610C94480141FD0C94CB
:10028000480140FD0C9448010E94AF000C944801C5
:1002900078940F911895F89400E00093C50007E654
:1002A0000093C40006E00093C2000E94320004EFF5
:1002B0000093890004E20093880000E0009380002E
:1002C00000916F00026000936F0002E204B90CE03D
:1002D0000AB905E0009368000FEF00936B0000EF90
:1002E00000936D000FEF0DBF08E00EBF20E041E06E
:1002F00000E000930B000093050060E080E090E0D8
:1003000030E070E00E94AF000E944D000E94420069
:1003100010E050E078940E9475009093C6000E940F
:10032000850041FD0C948F01123041F0113011F124
:10033000103011F00C94FF010C94DE0124FD0C949C
:10034000B20120FD0C94B20125FD0C94B70121FDF2
:100350000C94B70126FD0C94B70122FD0C94B70153
:100360000C94FF010E94A5002E7E0C94FF0151E029
:100370000C94FF0121FD0C94CE0120FD0C94D301BF
:1003800024FD0C94D30125FD0C94D60126FD0C947C
:10039000DB0122FD0C94DB010C94FF010E94A500FF
:1003A0002D7F0C94FF0152E00C94FF010E94A500E8
:1003B0002F7D0C94FF0150E00C94FF0122FD0C9462
:1003C000F20120FD0C94F70124FD0C94F70121FDAE
:1003D0000C94F70125FD0C94F70126FD0C94FA010D
:1003E0000C94FF010E94A5002B7F0C94FF0151E0AB
:1003F0000C94FF010E94A5002F7B0C94FF0140FF8D
:100400000C948F01511739F042600E943A000C940D
:0A0410008F010C948F010C948F01F2
:00000001FF
