:020000020000FC
:040000000C94540107
:04000C000C9420012F
:040014000C94F80050
:04002C000C94D3005D
:100050000C94BC00F8940F9300E00093C1000F9142
:1000600078940895F8940F9308E40093C1000F91D9
:1000700078940895F8940F930CE0009381000F9109
:10008000789408950895F8940F9300E00093850004
:10009000009384000F9178940895F8940F9300E0F2
:1000A000009381000F9178940895F8940F9305B10F
:1000B000026005B90F9178940895F8940F9305B1F3
:1000C0000D7F05B90F9178940895F8940F9305B1B9
:1000D000006205B90F9178940895F8940F9305B1D3
:1000E0000F7D05B90F9178940895F8946F935F93FD
:1000F0004F9360E05AEF40E0415050406040E0F7DD
:100100004F915F916F9178940895F8946F936BB1CC
:10011000103041F0113049F0123059F0133069F0CD
:100120000C94A100637F0C94A1006B7F68600C9419
:10013000A100677F64600C94A100686064600C9407
:10014000A1006BB96F9178940895F8940E944200D1
:100150004E7F0E9465000E943A0078940895F894BA
:1001600041600E945D000E946D000E944D000E944F
:10017000420030E078940895123029F0113041F0B7
:10018000103059F0189592E39093C6000C94D20069
:1001900091E39093C6000C94D20090E39093C60034
:1001A0000C94D2001895F8943F5F41FD0C94DA004E
:1001B0000C94E5003330D1F44D7F152F0E944D0093
:1001C0000E94420030E00C94F60040FD0C94F600D2
:1001D000353021F03A3031F00C94F6000E94550091
:1001E0000C94F6000E94AF000C94F60078941895D9
:1001F0000F9309B1F8940E9475000E94750004FDE8
:100200000C940D0105FD0C94100106FD0C941301D6
:1002100007FD0C9416010C941D0124600C941D0123
:1002200022600C941D0121600C941D0141FD0C9471
:100230001D010E94A5000C941D0178940F91189542
:100240000F9303B1F8940E9475000E94750000FDA1
:100250000C94470102FD0C94350103FD0C943B0105
:1002600004FD0C9441010C94510110E00E948500A2
:1002700020640C94510111E00E94850020620C94CE
:10028000510112E00E94850020610C94510141FD52
:100290000C94510140FD0C9451010E94AF000C944C
:1002A000510178940F911895F89400E00093C500DF
:1002B00007E60093C40006E00093C2000E943200EB
:1002C00004EF0093890004E20093880000E00093AB
:1002D000800000916F00026000936F0002E204B999
:1002E0000CE00AB905E0009368000FEF00936B0083
:1002F00000EF00936D000FEF0DBF08E00EBF20E090
:1003000041E000E000930B000093050060E080E016
:1003100090E030E070E00E94AF000E944D000E942B
:10032000420010E050E078940E9475009093C6005F
:100330000E94850041FD0C949801123041F011306B
:1003400011F1103011F00C9408020C94E70124FD17
:100350000C94BB0120FD0C94BB0125FD0C94C00145
:1003600021FD0C94C00126FD0C94C00122FD0C94CB
:10037000C0010C9408020E94A5002E7E0C94080275
:1003800051E00C94080221FD0C94D70120FD0C943F
:10039000DC0124FD0C94DC0125FD0C94DF0126FD1D
:1003A0000C94E40122FD0C94E4010C9408020E94D8
:1003B000A5002D7F0C94080252E00C9408020E94C4
:1003C000A5002F7D0C94080250E00C94080222FD39
:1003D0000C94FB0120FD0C94000224FD0C940002FF
:1003E00021FD0C94000225FD0C94000226FD0C94C6
:1003F00003020C9408020E94A5002B7F0C940802B3
:1004000051E00C9408020E94A5002F7B0C94080276
:1004100040FF0C949801511739F042600E943A0055
:0C0420000C9498010C9498010C94980125
:00000001FF
