:020000020000FC
:040000000C94090152
:04000C000C94E6006A
:040014000C94C20086
:04002C000C94970099
:100050000C9493000F9300E00093C1000F9108955A
:100060000F9308E40093C1000F9108950CE00093F2
:100070008100089500E0009385000093840030E043
:10008000089500E00093810008950F9305B1026088
:1000900005B90F91089505B10D7F05B9089505B112
:1000A000006205B9089505B10F7D05B908956F93F4
:1000B0005F934F9360E05AEF40E041505040604002
:1000C000E0F74F915F916F9108950BB1103041F0BF
:1000D000113049F0123059F0133069F00C947F0060
:1000E000037F0C947F000B7F08600C947F00077FD8
:1000F00004600C947F00086004600C947F000BB9CE
:1001000008950E943A004E7F0E944F000E943600E0
:10011000089541600E944B000E9453000E944100DC
:100120000E943A00089591E49093C6001895F894BF
:100130003F5F41FD0C94B40040FD0C94C00035308D
:1001400021F03A3031F00C94C0000E9445000C942C
:10015000C0000E944B000E94530041600E94410079
:100160000E943A000C94C000333011F00C94C0008F
:10017000152F4D7F0E9441000E943A000C94C00050
:1001800078941895F89409B10E94570004FD0C94D6
:10019000D40005FD0C94D80006FD0C94DB0007FD8F
:1001A0000C94DE000C94E40010E024600C94E40055
:1001B00011E00C94E40012E00C94E4000E944F0063
:1001C0000E9481000C94E40078941895F89403B18F
:1001D0000E94570000FD0C94010102FD0C94F800F0
:1001E00003FD0C94FB0004FD0C94FE000C9407012D
:1001F00010E00C94070111E00C94070112E00C943C
:1002000007010E944B000E9453000C940701789450
:100210001895F89400E00093C50007E60093C40029
:1002200006E00093C2000AE70093890002E1009310
:10023000880000E00093800000916F00026000934E
:100240006F0002E204B90CE00AB905E0009368000F
:100250000FEF00936B0000EF00936D000FEF0DBFE9
:1002600008E00EBF0E9441000E943A0010E041E009
:100270000E94890093E578949093C6000E946500DF
:10028000FDCF41FD08C040FF07C0511729F0426073
:10029000EDDE02C0F3CFF2CF103029F01130B1F013
:1002A000123049F1EBCF22FD0BC026FD09C020FD25
:1002B0000BC024FD09C021FD07C025FD05C0DECF10
:1002C0000E9481002B7BDACF51E0D8CF21FD0AC0FC
:1002D00025FD08C020FD0BC024FD09C021FD02C082
:1002E00025FD00C00E94810082E22D7DC7CF52E033
:1002F000C5CF50E0C3CF20FD0AC024FD08C020FDBB
:1003000006C024FD04C021FD06C025FD04C00E94D6
:0A03100081002E7EB3CF51E0B1CF83
:00000001FF
