:020000020000FC
:040000000C942A0131
:04000C000C94070148
:040014000C94E40064
:04002C000C94C00070
:100050000C94BB00F8940F9300E00093C1000F9143
:1000600078940895F8940F9308E40093C1000F91D9
:1000700078940895F8940F930CE0009381000F9109
:1000800078940895F8940F9300E00093850000930E
:10009000840030E00F9178940895F8940F9300E075
:1000A000009381000F9178940895F8940F9305B10F
:1000B000026005B90F9178940895F8940F9305B1F3
:1000C0000D7F05B90F9178940895F8940F9305B1B9
:1000D000006205B90F9178940895F8940F9305B1D3
:1000E0000F7D05B90F9178940895F8946F935F93FD
:1000F0004F9360E05AEF40E0415050406040E0F7DD
:100100004F915F916F9178940895F8946F936BB1CC
:10011000103041F0113049F0123059F0133069F0CD
:100120000C94A100637F0C94A1006B7F68600C9419
:10013000A100677F64600C94A100686064600C9407
:10014000A1006BB96F9178940895F8940E944200D1
:100150004E7F0E9465000E943A0078940895F894BA
:1001600041600E945D000E946D000E944D000E944F
:10017000420078940895189591E49093C6001895DC
:10018000F8943F5F41FD0C94D60040FD0C94E200D2
:10019000353021F03A3031F00C94E2000E945500E5
:1001A0000C94E2000E94AF000C94E200333011F096
:1001B0000C94E200152F4D7F0E944D000E944200DA
:1001C0000C94E20078941895F89409B10E94750097
:1001D00004FD0C94F60005FD0C94F90006FD0C944A
:1001E000FC0007FD0C94FF000C94050124600C94A6
:1001F000050122600C94050121600C9405010E9408
:1002000065000E94A5000C94050178941895F89457
:1002100003B10E94750000FD0C94220102FD0C94B4
:10022000190103FD0C941C0104FD0C941F010C9496
:10023000280110E00C94280111E00C94280112E030
:100240000C9428010E945D000E946D000C9428010E
:1002500078941895F89400E00093C50007E60093A1
:10026000C40006E00093C2000AE70093890002E19F
:100270000093880000E00093800000916F0002600E
:1002800000936F0002E204B90CE00AB905E00093A4
:1002900068000FEF00936B0000EF00936D000FEF0D
:1002A0000DBF08E00EBF20E00E944D000E944200FA
:1002B00010E050E041E00E94AF0000E000930B002E
:1002C0000093050078940E9475000E94850041FD0E
:1002D00008C040FF07C0511729F04260CBDE02C0C2
:1002E000F4CFF3CF103029F01130B1F0123051F1CA
:1002F000ECCF22FD0BC026FD09C020FD0BC024FD64
:1003000009C021FD07C025FD05C0DFCF0E94A50063
:100310002B7BDBCF51E0D9CF21FD0BC025FD09C0E0
:1003200020FD0CC024FD0AC022FD0AC026FD08C025
:10033000CCCF0E94A50082E22D7DC7CF52E0C5CF71
:1003400050E0C3CF20FD0BC024FD09C021FD0BC030
:1003500025FD09C022FD07C026FD05C0B6CF0E94BD
:0A036000A5002E7EB2CF51E0B0CF11
:00000001FF
