:020000020000FC
:040000000C944D010E
:04000C000C9422012D
:040014000C94FA004E
:04002C000C94D5005B
:100050000C94BE00F8940F9300E00093C1000F9140
:1000600078940895F8940F9308E40093C1000F91D9
:1000700078940895F8940F930CE0009381000F9109
:10008000789408950895F8940F9300E00093850004
:10009000009384000F9178940895F8940F9300E0F2
:1000A000009381000F9178940895F8940F9305B10F
:1000B000026005B90F9178940895F8940F9305B1F3
:1000C0000D7F05B90F9178940895F8940F9305B1B9
:1000D000006205B90F9178940895F8940F9305B1D3
:1000E0000F7D05B90F9178940895F8946F935F93FD
:1000F0004F9360E05AEF40E0415050406040E0F7DD
:100100004F915F916F9178940895F8946F936BB1CC
:10011000103041F0113049F0123059F0133069F0CD
:100120000C94A100637F0C94A100677F64600C9421
:10013000A1006B7F68600C94A100646068600C94FF
:10014000A1006BB96F9178940895F8940E945D00B6
:100150000E9442004E7F0E9465000E943A007894FF
:100160000895F89441600E945D000E946D000E9415
:100170004D000E94420030E078940895123029F03A
:10018000113041F0103059F0189592E39093C60069
:100190000C94D40091E39093C6000C94D40090E3A7
:1001A0009093C6000C94D4001895F8943F5F41FDDD
:1001B0000C94DC000C94E7003330D1F44D7F152F04
:1001C0000E944D000E94420030E00C94F80040FD77
:1001D0000C94F800353021F03A3031F00C94F800EE
:1001E0000E9455000C94F8000E94B1000C94F80095
:1001F000789418950F9309B1F8940E9475000E94A5
:10020000750004FD0C940F0105FD0C94120106FD10
:100210000C94150107FD0C9418010C941F01246027
:100220000C941F0122600C941F0121600C941F018B
:1002300041FD0C941F010E94A5000C941F017894AD
:100240000F9118950F9303B1F8940E9475000E94C6
:10025000750000FD0C94400102FD0C94370103FD74
:100260000C943A0104FD0C943D010C944A01206465
:100270000C944A0120620C944A0120610C944A01BA
:1002800041FD0C944A0140FD0C944A010E94B100CA
:100290000C944A0178940F911895F89400E000931B
:1002A000C50007E60093C40006E00093C2000E9468
:1002B000320004EF0093890004E20093880000E01C
:1002C0000093800000916F00026000936F0002E2D3
:1002D00004B90CE00AB905E0009368000FEF009341
:1002E0006B0000EF00936D000FEF0DBF08E00EBF35
:1002F00020E041E000E000930B000093050060E087
:1003000080E090E030E070E00E94B1000E944D007B
:100310000E94420010E050E078940E947500909393
:10032000C6000E94850041FD0C949101123041F0FD
:10033000113011F1103011F00C9401020C94E00115
:1003400024FD0C94B40120FD0C94B40125FD0C9403
:10035000B90121FD0C94B90126FD0C94B90122FDCF
:100360000C94B9010C9401020E94A5002E7E0C94FD
:10037000010251E00C94010221FD0C94D00120FDFA
:100380000C94D50124FD0C94D50125FD0C94D801C5
:1003900026FD0C94DD0122FD0C94DD010C9401027C
:1003A0000E94A5002D7F0C94010252E00C940102E2
:1003B0000E94A5002F7D0C94010250E00C940102D4
:1003C00022FD0C94F40120FD0C94F90124FD0C9401
:1003D000F90121FD0C94F90125FD0C94F90126FD8C
:1003E0000C94FC010C9401020E94A5002B7F0C943C
:1003F000010251E00C9401020E94A5002F7B0C9495
:10040000010240FF0C949101511739F042600E94A3
:0E0410003A000C9491010C9491010C9491010E
:00000001FF
