:020000020000FC
:040000000C942C012F
:04000C000C94090146
:040014000C94E60062
:04002C000C94C00070
:100050000C94BB00F8940F9300E00093C1000F9143
:1000600078940895F8940F9308E40093C1000F91D9
:1000700078940895F8940F930CE0009381000F9109
:1000800078940895F8940F9300E00093850000930E
:10009000840030E00F9178940895F8940F9300E075
:1000A000009381000F9178940895F8940F9305B10F
:1000B000026005B90F9178940895F8940F9305B1F3
:1000C0000D7F05B90F9178940895F8940F9305B1B9
:1000D000006205B90F9178940895F8940F9305B1D3
:1000E0000F7D05B90F9178940895F8946F935F93FD
:1000F0004F9360E05AEF40E0415050406040E0F7DD
:100100004F915F916F9178940895F8946F936BB1CC
:10011000103041F0113049F0123059F0133069F0CD
:100120000C94A100637F0C94A1006B7F68600C9419
:10013000A100677F64600C94A100686064600C9407
:10014000A1006BB96F9178940895F8940E944200D1
:100150004E7F0E9465000E943A0078940895F894BA
:1001600041600E945D000E946D000E944D000E944F
:10017000420078940895189591E49093C6001895DC
:10018000F8943F5F41FD0C94D60040FD0C94E400D0
:10019000353021F03A3031F00C94E4000E945500E3
:1001A0000C94E4000E94AF000C94E400333011F092
:1001B0000C94E400152F4D7F0E9485000E944D0095
:1001C0000E9442000C94E40078941895F89409B1C8
:1001D0000E94750004FD0C94F80005FD0C94FB00D2
:1001E00006FD0C94FE0007FD0C9401010C94070120
:1001F00024600C94070122600C94070121600C9488
:1002000007010E9465000E94A5000C9407017894E4
:100210001895F89403B10E94750000FD0C94240118
:1002200002FD0C941B0103FD0C941E0104FD0C94B3
:1002300021010C942A0110E00C942A0111E00C9485
:100240002A0112E00C942A010E945D000E946D00B8
:100250000C942A0178941895F89400E00093C50056
:1002600007E60093C40006E00093C2000AE700938B
:10027000890002E10093880000E000938000009173
:100280006F00026000936F0002E204B90CE00AB94B
:1002900005E0009368000FEF00936B0000EF009300
:1002A0006D000FEF0DBF08E00EBF20E00E944D0073
:1002B0000E94420010E050E041E00E94AF0000E0E8
:1002C00000930B000093050078940E94750041FD97
:1002D00008C040FF07C0511729F04260CBDE02C0C2
:1002E000F6CFF5CF103029F01130B1F0123051F1C6
:1002F000EECF22FD0BC026FD09C020FD0BC024FD62
:1003000009C021FD07C025FD05C0E1CF0E94A50061
:100310002B7BDDCF51E0DBCF21FD0BC025FD09C0DC
:1003200020FD0CC024FD0AC022FD0AC026FD08C025
:10033000CECF0E94A50082E22D7DC9CF52E0C7CF6B
:1003400050E0C5CF20FD0BC024FD09C021FD0BC02E
:1003500025FD09C022FD07C026FD05C0B8CF0E94BB
:0A036000A5002E7EB4CF51E0B2CF0D
:00000001FF
